{
  "contractName": "Voting",
  "abi": [
    {
      "inputs": [],
      "payable": false,
      "stateMutability": "nonpayable",
      "type": "constructor"
    },
    {
      "anonymous": false,
      "inputs": [
        {
          "indexed": true,
          "internalType": "uint256",
          "name": "_candidateId",
          "type": "uint256"
        }
      ],
      "name": "votedEvent",
      "type": "event"
    },
    {
      "constant": true,
      "inputs": [
        {
          "internalType": "uint256",
          "name": "",
          "type": "uint256"
        }
      ],
      "name": "candidates",
      "outputs": [
        {
          "internalType": "uint256",
          "name": "id",
          "type": "uint256"
        },
        {
          "internalType": "string",
          "name": "name",
          "type": "string"
        },
        {
          "internalType": "uint256",
          "name": "voteCount",
          "type": "uint256"
        }
      ],
      "payable": false,
      "stateMutability": "view",
      "type": "function"
    },
    {
      "constant": true,
      "inputs": [],
      "name": "candidatesCount",
      "outputs": [
        {
          "internalType": "uint256",
          "name": "",
          "type": "uint256"
        }
      ],
      "payable": false,
      "stateMutability": "view",
      "type": "function"
    },
    {
      "constant": true,
      "inputs": [
        {
          "internalType": "address",
          "name": "",
          "type": "address"
        }
      ],
      "name": "voters",
      "outputs": [
        {
          "internalType": "bool",
          "name": "",
          "type": "bool"
        }
      ],
      "payable": false,
      "stateMutability": "view",
      "type": "function"
    },
    {
      "constant": false,
      "inputs": [
        {
          "internalType": "string",
          "name": "_name",
          "type": "string"
        }
      ],
      "name": "addCandidate",
      "outputs": [],
      "payable": false,
      "stateMutability": "nonpayable",
      "type": "function"
    },
    {
      "constant": false,
      "inputs": [
        {
          "internalType": "uint256",
          "name": "_candidateId",
          "type": "uint256"
        }
      ],
      "name": "vote",
      "outputs": [],
      "payable": false,
      "stateMutability": "nonpayable",
      "type": "function"
    }
  ],
  "bytecode": "0x608060405234801561001057600080fd5b5060408051808201909152600d81526c6361726c6f732070756572746160981b6020820152610047906001600160e01b036100b116565b604080518082019091526009815268185cd9185cd9185cd960ba1b6020820152610079906001600160e01b036100b116565b60408051808201909152600a8152697765776577657765776560b01b60208201526100ac906001600160e01b036100b116565b6101ad565b600280546001908101918290556040805160608101825283815260208082018681526000838501819052958652858252929094208151815591518051919492936101019390850192910190610112565b506040820151816002015590505050565b828054600181600116156101000203166002900490600052602060002090601f016020900481019282601f1061015357805160ff1916838001178555610180565b82800160010185558215610180579182015b82811115610180578251825591602001919060010190610165565b5061018c929150610190565b5090565b6101aa91905b8082111561018c5760008155600101610196565b90565b610443806101bc6000396000f3fe608060405234801561001057600080fd5b50600436106100575760003560e01c80630121b93f1461005c5780632d35a8a21461007b5780633477ee2e14610095578063462e91ec14610138578063a3ec138d146101de575b600080fd5b6100796004803603602081101561007257600080fd5b5035610218565b005b61008361024d565b60408051918252519081900360200190f35b6100b2600480360360208110156100ab57600080fd5b5035610253565b6040518084815260200180602001838152602001828103825284818151815260200191508051906020019080838360005b838110156100fb5781810151838201526020016100e3565b50505050905090810190601f1680156101285780820380516001836020036101000a031916815260200191505b5094505050505060405180910390f35b6100796004803603602081101561014e57600080fd5b81019060208101813564010000000081111561016957600080fd5b82018360208201111561017b57600080fd5b8035906020019184600183028401116401000000008311171561019d57600080fd5b91908080601f0160208091040260200160405190810160405280939291908181526020018383808284376000920191909152509295506102fd945050505050565b610204600480360360208110156101f457600080fd5b50356001600160a01b031661035e565b604080519115158252519081900360200190f35b60008111801561022a57506002548111155b61023357600080fd5b600090815260208190526040902060020180546001019055565b60025481565b600060208181529181526040908190208054600180830180548551600293821615610100026000190190911692909204601f81018790048702830187019095528482529194929390928301828280156102ed5780601f106102c2576101008083540402835291602001916102ed565b820191906000526020600020905b8154815290600101906020018083116102d057829003601f168201915b5050505050908060020154905083565b6002805460019081019182905560408051606081018252838152602080820186815260008385018190529586528582529290942081518155915180519194929361034d9390850192910190610373565b506040820151816002015590505050565b60016020526000908152604090205460ff1681565b828054600181600116156101000203166002900490600052602060002090601f016020900481019282601f106103b457805160ff19168380011785556103e1565b828001600101855582156103e1579182015b828111156103e15782518255916020019190600101906103c6565b506103ed9291506103f1565b5090565b61040b91905b808211156103ed57600081556001016103f7565b9056fea265627a7a72315820090484b7532968b552882d98261ea7d048eddf8e930d6e2cc3ecc6d26dc1f48364736f6c63430005100032",
  "source": "pragma solidity ^0.5.16;\n\ncontract Voting {\n     \n    // Model a candidate\n    struct Candidate {\n        uint id;\n        string name;\n        uint voteCount;\n    }\n\n    // Read/write Candidates\n    mapping (uint => Candidate) public candidates;\n\n    // Store accounts that have voted\n    mapping(address => bool) public voters;\n\n    // Store Candidate Count\n    uint public candidatesCount;\n\n    event votedEvent(\n        uint indexed _candidateId\n    );\n\n    // Contructor\n    constructor () public {\n        addCandidate(\"carlos puerta\");\n        addCandidate(\"asdasdasd\");\n        addCandidate(\"wewewewewe\");\n    }\n\n    // Add Candidate\n    function addCandidate(string memory _name) public {\n        candidatesCount ++;\n        candidates[candidatesCount] = Candidate(candidatesCount,_name, 0);\n    }\n    // Vote\n    function vote(uint _candidateId) public {\n        // require that they haven't voted before\n    \n        // require a valid candidate\n        require(_candidateId > 0 && _candidateId <= candidatesCount);\n        // update candidate vote count\n        candidates[_candidateId].voteCount ++;\n\n        // trigger voted event\n        // emit votedEvent(_candidateId);\n    }\n\n    //\n    //        \n}",
  "sourcePath": "E:\\Users\\steve\\Desktop\\api\\blockchain\\contracts\\Voting.sol",
  "compiler": {
    "name": "solc",
    "version": "0.5.16+commit.9c3226ce.Emscripten.clang"
  },
  "schemaVersion": "3.0.23",
  "updatedAt": "2020-09-20T16:16:53.198Z",
  "networkType": "ethereum",
  "devdoc": {
    "methods": {}
  },
  "userdoc": {
    "methods": {}
  }
}